{
    "contractName": "Administrable",
    "abi": [
        {
            "inputs": [],
            "stateMutability": "nonpayable",
            "type": "constructor"
        },
        {
            "anonymous": false,
            "inputs": [
                {
                    "indexed": true,
                    "internalType": "address",
                    "name": "currentAdmin",
                    "type": "address"
                },
                {
                    "indexed": true,
                    "internalType": "address",
                    "name": "newAdmin",
                    "type": "address"
                }
            ],
            "name": "AdminshipTransferred",
            "type": "event"
        },
        {
            "inputs": [],
            "name": "admin",
            "outputs": [
                {
                    "internalType": "address",
                    "name": "",
                    "type": "address"
                }
            ],
            "stateMutability": "view",
            "type": "function"
        },
        {
            "inputs": [
                {
                    "internalType": "address",
                    "name": "newAdmin",
                    "type": "address"
                }
            ],
            "name": "tranferAdminship",
            "outputs": [],
            "stateMutability": "nonpayable",
            "type": "function"
        }
    ],
    "bytecode": "608060405234801561001057600080fd5b50600080546001600160a01b0319163390811782556040519091907f2931ebb3d190545dcf6801c37aa686b74f2e1000e753d0fac6e471a2aa5a6213908290a36101968061005f6000396000f3fe608060405234801561001057600080fd5b50600436106100365760003560e01c80637d340d181461003b578063f851a44014610050575b600080fd5b61004e610049366004610130565b61006f565b005b600054604080516001600160a01b039092168252519081900360200190f35b6000546001600160a01b031633146100d85760405162461bcd60e51b815260206004820152602260248201527f4f6e6c792061646d696e2063616e20706572666f726d2074686973206163746960448201526137b760f11b606482015260840160405180910390fd5b6040516001600160a01b0382169033907f2931ebb3d190545dcf6801c37aa686b74f2e1000e753d0fac6e471a2aa5a621390600090a3600080546001600160a01b0319166001600160a01b0392909216919091179055565b60006020828403121561014257600080fd5b81356001600160a01b038116811461015957600080fd5b939250505056fea26469706673582212204d12d67b6eba75133cc95a6cbb23e5084fb3067a473b6d3390d07a3c2ad5701664736f6c63430008090033",
    "sourcePath": "p:/Projects/TAM-Token-ERC20/Administrable.sol",
    "compiler": {
        "name": "solc",
        "version": "0.8.9+commit.e5eed63a"
    },
    "functionHashes": {
        "admin()": "f851a440",
        "tranferAdminship(address)": "7d340d18"
    },
    "gasEstimates": {
        "creation": {
            "codeDepositCost": "81200",
            "executionCost": "25897",
            "totalCost": "107097"
        },
        "external": {
            "admin()": "2292",
            "tranferAdminship(address)": "28201"
        }
    }
}