{
    "contractName": "MyToken",
    "abi": [
        {
            "inputs": [
                {
                    "internalType": "uint256",
                    "name": "initialSupply",
                    "type": "uint256"
                },
                {
                    "internalType": "string",
                    "name": "tokenName",
                    "type": "string"
                },
                {
                    "internalType": "string",
                    "name": "tokenSymbol",
                    "type": "string"
                },
                {
                    "internalType": "uint8",
                    "name": "decimalUnits",
                    "type": "uint8"
                }
            ],
            "stateMutability": "nonpayable",
            "type": "constructor"
        },
        {
            "anonymous": false,
            "inputs": [
                {
                    "indexed": true,
                    "internalType": "address",
                    "name": "owner",
                    "type": "address"
                },
                {
                    "indexed": true,
                    "internalType": "address",
                    "name": "spender",
                    "type": "address"
                },
                {
                    "indexed": false,
                    "internalType": "uint256",
                    "name": "value",
                    "type": "uint256"
                }
            ],
            "name": "Approval",
            "type": "event"
        },
        {
            "anonymous": false,
            "inputs": [
                {
                    "indexed": true,
                    "internalType": "address",
                    "name": "from",
                    "type": "address"
                },
                {
                    "indexed": true,
                    "internalType": "address",
                    "name": "to",
                    "type": "address"
                },
                {
                    "indexed": false,
                    "internalType": "uint256",
                    "name": "value",
                    "type": "uint256"
                }
            ],
            "name": "Tranfer",
            "type": "event"
        },
        {
            "inputs": [
                {
                    "internalType": "address",
                    "name": "owner",
                    "type": "address"
                },
                {
                    "internalType": "address",
                    "name": "spender",
                    "type": "address"
                }
            ],
            "name": "allowance",
            "outputs": [
                {
                    "internalType": "uint256",
                    "name": "",
                    "type": "uint256"
                }
            ],
            "stateMutability": "view",
            "type": "function"
        },
        {
            "inputs": [
                {
                    "internalType": "address",
                    "name": "spender",
                    "type": "address"
                },
                {
                    "internalType": "uint256",
                    "name": "amount",
                    "type": "uint256"
                }
            ],
            "name": "approve",
            "outputs": [
                {
                    "internalType": "bool",
                    "name": "success",
                    "type": "bool"
                }
            ],
            "stateMutability": "nonpayable",
            "type": "function"
        },
        {
            "inputs": [
                {
                    "internalType": "address",
                    "name": "account",
                    "type": "address"
                }
            ],
            "name": "balanceOf",
            "outputs": [
                {
                    "internalType": "uint256",
                    "name": "",
                    "type": "uint256"
                }
            ],
            "stateMutability": "view",
            "type": "function"
        },
        {
            "inputs": [],
            "name": "decimals",
            "outputs": [
                {
                    "internalType": "uint8",
                    "name": "",
                    "type": "uint8"
                }
            ],
            "stateMutability": "view",
            "type": "function"
        },
        {
            "inputs": [],
            "name": "name",
            "outputs": [
                {
                    "internalType": "string",
                    "name": "",
                    "type": "string"
                }
            ],
            "stateMutability": "view",
            "type": "function"
        },
        {
            "inputs": [],
            "name": "symbol",
            "outputs": [
                {
                    "internalType": "string",
                    "name": "",
                    "type": "string"
                }
            ],
            "stateMutability": "view",
            "type": "function"
        },
        {
            "inputs": [],
            "name": "totalSupply",
            "outputs": [
                {
                    "internalType": "uint256",
                    "name": "",
                    "type": "uint256"
                }
            ],
            "stateMutability": "view",
            "type": "function"
        },
        {
            "inputs": [
                {
                    "internalType": "address",
                    "name": "receiver",
                    "type": "address"
                },
                {
                    "internalType": "uint256",
                    "name": "amount",
                    "type": "uint256"
                }
            ],
            "name": "tranfer",
            "outputs": [
                {
                    "internalType": "bool",
                    "name": "",
                    "type": "bool"
                }
            ],
            "stateMutability": "nonpayable",
            "type": "function"
        },
        {
            "inputs": [
                {
                    "internalType": "address",
                    "name": "sender",
                    "type": "address"
                },
                {
                    "internalType": "address",
                    "name": "receiver",
                    "type": "address"
                },
                {
                    "internalType": "uint256",
                    "name": "amount",
                    "type": "uint256"
                }
            ],
            "name": "tranferFrom",
            "outputs": [
                {
                    "internalType": "bool",
                    "name": "",
                    "type": "bool"
                }
            ],
            "stateMutability": "nonpayable",
            "type": "function"
        }
    ],
    "bytecode": "60806040523480156200001157600080fd5b5060405162000c1c38038062000c1c833981016040819052620000349162000203565b3360009081526020818152604090912085905560058590556004805460ff191660ff841617905582516200006f916003919085019062000090565b5082516200008590600290602086019062000090565b5050505050620002ce565b8280546200009e9062000291565b90600052602060002090601f016020900481019282620000c257600085556200010d565b82601f10620000dd57805160ff19168380011785556200010d565b828001600101855582156200010d579182015b828111156200010d578251825591602001919060010190620000f0565b506200011b9291506200011f565b5090565b5b808211156200011b576000815560010162000120565b634e487b7160e01b600052604160045260246000fd5b600082601f8301126200015e57600080fd5b81516001600160401b03808211156200017b576200017b62000136565b604051601f8301601f19908116603f01168101908282118183101715620001a657620001a662000136565b81604052838152602092508683858801011115620001c357600080fd5b600091505b83821015620001e75785820183015181830184015290820190620001c8565b83821115620001f95760008385830101525b9695505050505050565b600080600080608085870312156200021a57600080fd5b845160208601519094506001600160401b03808211156200023a57600080fd5b62000248888389016200014c565b945060408701519150808211156200025f57600080fd5b506200026e878288016200014c565b925050606085015160ff811681146200028657600080fd5b939692955090935050565b600181811c90821680620002a657607f821691505b60208210811415620002c857634e487b7160e01b600052602260045260246000fd5b50919050565b61093e80620002de6000396000f3fe608060405234801561001057600080fd5b50600436106100935760003560e01c806370a082311161006657806370a08231146101005780639264a1691461012957806395d89b411461013c578063c610bb0714610144578063dd62ed3e1461015757600080fd5b806306fdde0314610098578063095ea7b3146100b657806318160ddd146100d9578063313ce567146100eb575b600080fd5b6100a0610190565b6040516100ad919061067c565b60405180910390f35b6100c96100c43660046106ed565b610222565b60405190151581526020016100ad565b6005545b6040519081526020016100ad565b60045460405160ff90911681526020016100ad565b6100dd61010e366004610717565b6001600160a01b031660009081526020819052604090205490565b6100c9610137366004610739565b6102ef565b6100a0610548565b6100c96101523660046106ed565b610557565b6100dd610165366004610775565b6001600160a01b03918216600090815260016020908152604080832093909416825291909152205490565b60606002805461019f906107a8565b80601f01602080910402602001604051908101604052809291908181526020018280546101cb906107a8565b80156102185780601f106101ed57610100808354040283529160200191610218565b820191906000526020600020905b8154815290600101906020018083116101fb57829003601f168201915b5050505050905090565b60006001600160a01b03831661028a5760405162461bcd60e51b815260206004820152602260248201527f546865205370656e64657220616464726573732063616e6e6f74206265207a65604482015261726f60f01b60648201526084015b60405180910390fd5b3360008181526001602090815260408083206001600160a01b03881680855290835292819020869055518581529192917f8c5be1e5ebec7d5bd14f71427d1e84f3dd0314c0f7b2291e5b200ac8c7c3b92591015b60405180910390a350600192915050565b60006001600160a01b0384166103515760405162461bcd60e51b815260206004820152602160248201527f5468652073656e64657220616464726573732063616e6e6f74206265207a65726044820152606f60f81b6064820152608401610281565b6001600160a01b0383166103775760405162461bcd60e51b8152600401610281906107e3565b6001600160a01b038085166000908152600160209081526040808320938716835292905220548211156103e55760405162461bcd60e51b8152602060048201526016602482015275082d8d8deeedcc6ca40d2e640dcdee840cadcdeeaced60531b6044820152606401610281565b6001600160a01b03841660009081526020819052604090205482111561041d5760405162461bcd60e51b815260040161028190610826565b6001600160a01b038316600090815260208190526040902054610440838261088e565b1161045d5760405162461bcd60e51b8152600401610281906108a6565b6001600160a01b038416600090815260208190526040812080548492906104859084906108f1565b90915550506001600160a01b0384166000908152600160209081526040808320338452909152812080548492906104bd9084906108f1565b90915550506001600160a01b038316600090815260208190526040812080548492906104ea90849061088e565b92505081905550826001600160a01b0316846001600160a01b03167f5225eac2a7facfbeb099c00a4cc7c457701324f1fd84b84b14033f9e911374a48460405161053691815260200190565b60405180910390a35060019392505050565b60606003805461019f906107a8565b60006001600160a01b03831661057f5760405162461bcd60e51b8152600401610281906107e3565b336000908152602081905260409020548211156105ae5760405162461bcd60e51b815260040161028190610826565b6001600160a01b0383166000908152602081905260409020546105d1838261088e565b116105ee5760405162461bcd60e51b8152600401610281906108a6565b336000908152602081905260408120805484929061060d9084906108f1565b90915550506001600160a01b0383166000908152602081905260408120805484929061063a90849061088e565b90915550506040518281526001600160a01b0384169033907f5225eac2a7facfbeb099c00a4cc7c457701324f1fd84b84b14033f9e911374a4906020016102de565b600060208083528351808285015260005b818110156106a95785810183015185820160400152820161068d565b818111156106bb576000604083870101525b50601f01601f1916929092016040019392505050565b80356001600160a01b03811681146106e857600080fd5b919050565b6000806040838503121561070057600080fd5b610709836106d1565b946020939093013593505050565b60006020828403121561072957600080fd5b610732826106d1565b9392505050565b60008060006060848603121561074e57600080fd5b610757846106d1565b9250610765602085016106d1565b9150604084013590509250925092565b6000806040838503121561078857600080fd5b610791836106d1565b915061079f602084016106d1565b90509250929050565b600181811c908216806107bc57607f821691505b602082108114156107dd57634e487b7160e01b600052602260045260246000fd5b50919050565b60208082526023908201527f54686520726563656976657220616464726573732063616e6e6f74206265207a60408201526265726f60e81b606082015260800190565b60208082526032908201527f5468652073656e6465722068617320696e73756666696369656e742062616c616040820152711b98d9481a5b881d1a19481858d8dbdd5b9d60721b606082015260800190565b634e487b7160e01b600052601160045260246000fd5b600082198211156108a1576108a1610878565b500190565b6020808252602b908201527f4164646974696f6e206f766572666c6f7720666f756e6420696e20726563656960408201526a1d995c881858d8dbdd5b9d60aa1b606082015260800190565b60008282101561090357610903610878565b50039056fea2646970667358221220804d49de3405314f15afacf300698c9e744eeb631b7bf854e530c1d8ae44160064736f6c63430008090033",
    "sourcePath": "p:/Projects/TAM-Token-ERC20/TAM_Token.sol",
    "compiler": {
        "name": "solc",
        "version": "0.8.9+commit.e5eed63a"
    },
    "functionHashes": {
        "allowance(address,address)": "dd62ed3e",
        "approve(address,uint256)": "095ea7b3",
        "balanceOf(address)": "70a08231",
        "decimals()": "313ce567",
        "name()": "06fdde03",
        "symbol()": "95d89b41",
        "totalSupply()": "18160ddd",
        "tranfer(address,uint256)": "c610bb07",
        "tranferFrom(address,address,uint256)": "9264a169"
    },
    "gasEstimates": {
        "creation": {
            "codeDepositCost": "473200",
            "executionCost": "infinite",
            "totalCost": "infinite"
        },
        "external": {
            "allowance(address,address)": "infinite",
            "approve(address,uint256)": "24543",
            "balanceOf(address)": "2540",
            "decimals()": "2356",
            "name()": "infinite",
            "symbol()": "infinite",
            "totalSupply()": "2326",
            "tranfer(address,uint256)": "infinite",
            "tranferFrom(address,address,uint256)": "infinite"
        },
        "internal": {
            "setAllowance(address,address,uint256)": "infinite",
            "setBalance(address,uint256)": "infinite",
            "setTotalSupply(uint256)": "infinite"
        }
    }
}