{
    "contractName": "MyTokenAdvanced",
    "abi": [
        {
            "inputs": [
                {
                    "internalType": "uint256",
                    "name": "initialSupply",
                    "type": "uint256"
                },
                {
                    "internalType": "string",
                    "name": "tokenName",
                    "type": "string"
                },
                {
                    "internalType": "string",
                    "name": "tokenSymbol",
                    "type": "string"
                },
                {
                    "internalType": "uint8",
                    "name": "decimalUints",
                    "type": "uint8"
                },
                {
                    "internalType": "address",
                    "name": "newAdmin",
                    "type": "address"
                }
            ],
            "stateMutability": "nonpayable",
            "type": "constructor"
        },
        {
            "anonymous": false,
            "inputs": [
                {
                    "indexed": true,
                    "internalType": "address",
                    "name": "currentAdmin",
                    "type": "address"
                },
                {
                    "indexed": true,
                    "internalType": "address",
                    "name": "newAdmin",
                    "type": "address"
                }
            ],
            "name": "AdminshipTransferred",
            "type": "event"
        },
        {
            "anonymous": false,
            "inputs": [
                {
                    "indexed": true,
                    "internalType": "address",
                    "name": "owner",
                    "type": "address"
                },
                {
                    "indexed": true,
                    "internalType": "address",
                    "name": "spender",
                    "type": "address"
                },
                {
                    "indexed": false,
                    "internalType": "uint256",
                    "name": "value",
                    "type": "uint256"
                }
            ],
            "name": "Approval",
            "type": "event"
        },
        {
            "anonymous": false,
            "inputs": [
                {
                    "indexed": true,
                    "internalType": "address",
                    "name": "target",
                    "type": "address"
                },
                {
                    "indexed": false,
                    "internalType": "bool",
                    "name": "frozen",
                    "type": "bool"
                }
            ],
            "name": "FrozenFund",
            "type": "event"
        },
        {
            "anonymous": false,
            "inputs": [
                {
                    "indexed": false,
                    "internalType": "uint256",
                    "name": "newBuyPrice",
                    "type": "uint256"
                },
                {
                    "indexed": false,
                    "internalType": "uint256",
                    "name": "newSellPrice",
                    "type": "uint256"
                }
            ],
            "name": "PriceChange",
            "type": "event"
        },
        {
            "anonymous": false,
            "inputs": [
                {
                    "indexed": true,
                    "internalType": "address",
                    "name": "from",
                    "type": "address"
                },
                {
                    "indexed": true,
                    "internalType": "address",
                    "name": "to",
                    "type": "address"
                },
                {
                    "indexed": false,
                    "internalType": "uint256",
                    "name": "value",
                    "type": "uint256"
                }
            ],
            "name": "Tranfer",
            "type": "event"
        },
        {
            "inputs": [],
            "name": "admin",
            "outputs": [
                {
                    "internalType": "address",
                    "name": "",
                    "type": "address"
                }
            ],
            "stateMutability": "view",
            "type": "function"
        },
        {
            "inputs": [
                {
                    "internalType": "address",
                    "name": "owner",
                    "type": "address"
                },
                {
                    "internalType": "address",
                    "name": "spender",
                    "type": "address"
                }
            ],
            "name": "allowance",
            "outputs": [
                {
                    "internalType": "uint256",
                    "name": "",
                    "type": "uint256"
                }
            ],
            "stateMutability": "view",
            "type": "function"
        },
        {
            "inputs": [
                {
                    "internalType": "address",
                    "name": "spender",
                    "type": "address"
                },
                {
                    "internalType": "uint256",
                    "name": "amount",
                    "type": "uint256"
                }
            ],
            "name": "approve",
            "outputs": [
                {
                    "internalType": "bool",
                    "name": "success",
                    "type": "bool"
                }
            ],
            "stateMutability": "nonpayable",
            "type": "function"
        },
        {
            "inputs": [
                {
                    "internalType": "address",
                    "name": "account",
                    "type": "address"
                }
            ],
            "name": "balanceOf",
            "outputs": [
                {
                    "internalType": "uint256",
                    "name": "",
                    "type": "uint256"
                }
            ],
            "stateMutability": "view",
            "type": "function"
        },
        {
            "inputs": [],
            "name": "buy",
            "outputs": [],
            "stateMutability": "payable",
            "type": "function"
        },
        {
            "inputs": [],
            "name": "buyPrice",
            "outputs": [
                {
                    "internalType": "uint256",
                    "name": "",
                    "type": "uint256"
                }
            ],
            "stateMutability": "view",
            "type": "function"
        },
        {
            "inputs": [],
            "name": "decimals",
            "outputs": [
                {
                    "internalType": "uint8",
                    "name": "",
                    "type": "uint8"
                }
            ],
            "stateMutability": "view",
            "type": "function"
        },
        {
            "inputs": [
                {
                    "internalType": "address",
                    "name": "target",
                    "type": "address"
                },
                {
                    "internalType": "bool",
                    "name": "freeze",
                    "type": "bool"
                }
            ],
            "name": "freezAccount",
            "outputs": [],
            "stateMutability": "nonpayable",
            "type": "function"
        },
        {
            "inputs": [
                {
                    "internalType": "address",
                    "name": "target",
                    "type": "address"
                },
                {
                    "internalType": "uint256",
                    "name": "mintedAmount",
                    "type": "uint256"
                }
            ],
            "name": "mintToken",
            "outputs": [],
            "stateMutability": "nonpayable",
            "type": "function"
        },
        {
            "inputs": [],
            "name": "name",
            "outputs": [
                {
                    "internalType": "string",
                    "name": "",
                    "type": "string"
                }
            ],
            "stateMutability": "view",
            "type": "function"
        },
        {
            "inputs": [
                {
                    "internalType": "uint256",
                    "name": "amount",
                    "type": "uint256"
                }
            ],
            "name": "sell",
            "outputs": [],
            "stateMutability": "nonpayable",
            "type": "function"
        },
        {
            "inputs": [],
            "name": "sellPrice",
            "outputs": [
                {
                    "internalType": "uint256",
                    "name": "",
                    "type": "uint256"
                }
            ],
            "stateMutability": "view",
            "type": "function"
        },
        {
            "inputs": [
                {
                    "internalType": "uint256",
                    "name": "newBuyPrice",
                    "type": "uint256"
                },
                {
                    "internalType": "uint256",
                    "name": "newSellPrice",
                    "type": "uint256"
                }
            ],
            "name": "setPrice",
            "outputs": [],
            "stateMutability": "nonpayable",
            "type": "function"
        },
        {
            "inputs": [],
            "name": "symbol",
            "outputs": [
                {
                    "internalType": "string",
                    "name": "",
                    "type": "string"
                }
            ],
            "stateMutability": "view",
            "type": "function"
        },
        {
            "inputs": [],
            "name": "totalSupply",
            "outputs": [
                {
                    "internalType": "uint256",
                    "name": "",
                    "type": "uint256"
                }
            ],
            "stateMutability": "view",
            "type": "function"
        },
        {
            "inputs": [
                {
                    "internalType": "address",
                    "name": "receiver",
                    "type": "address"
                },
                {
                    "internalType": "uint256",
                    "name": "amount",
                    "type": "uint256"
                }
            ],
            "name": "tranfer",
            "outputs": [
                {
                    "internalType": "bool",
                    "name": "",
                    "type": "bool"
                }
            ],
            "stateMutability": "nonpayable",
            "type": "function"
        },
        {
            "inputs": [
                {
                    "internalType": "address",
                    "name": "newAdmin",
                    "type": "address"
                }
            ],
            "name": "tranferAdminship",
            "outputs": [],
            "stateMutability": "nonpayable",
            "type": "function"
        },
        {
            "inputs": [
                {
                    "internalType": "address",
                    "name": "sender",
                    "type": "address"
                },
                {
                    "internalType": "address",
                    "name": "receiver",
                    "type": "address"
                },
                {
                    "internalType": "uint256",
                    "name": "amount",
                    "type": "uint256"
                }
            ],
            "name": "tranferFrom",
            "outputs": [
                {
                    "internalType": "bool",
                    "name": "",
                    "type": "bool"
                }
            ],
            "stateMutability": "nonpayable",
            "type": "function"
        },
        {
            "inputs": [],
            "name": "withdraw",
            "outputs": [],
            "stateMutability": "nonpayable",
            "type": "function"
        }
    ],
    "bytecode": "608060405260016009556001600a553480156200001b57600080fd5b50604051620016a6380380620016a68339810160408190526200003e9162000372565b33600090815260208181526040822082905560058290556004805460ff191660ff861617905584518691869186916200007d91600391850190620001ff565b50825162000093906002906020860190620001ff565b5050600680546001600160a01b03191633908117909155604051909350600092507f2931ebb3d190545dcf6801c37aa686b74f2e1000e753d0fac6e471a2aa5a621391508290a36001600160a01b03811615801590620000fc57506001600160a01b0381163314155b156200010d576200010d816200013d565b6001600160a01b03811660009081526020819052604090208590556200013285600555565b505050505062000460565b6006546001600160a01b03163314620001a75760405162461bcd60e51b815260206004820152602260248201527f4f6e6c792061646d696e2063616e20706572666f726d2074686973206163746960448201526137b760f11b606482015260840160405180910390fd5b6040516001600160a01b0382169033907f2931ebb3d190545dcf6801c37aa686b74f2e1000e753d0fac6e471a2aa5a621390600090a3600680546001600160a01b0319166001600160a01b0392909216919091179055565b8280546200020d9062000423565b90600052602060002090601f0160209004810192826200023157600085556200027c565b82601f106200024c57805160ff19168380011785556200027c565b828001600101855582156200027c579182015b828111156200027c5782518255916020019190600101906200025f565b506200028a9291506200028e565b5090565b5b808211156200028a57600081556001016200028f565b634e487b7160e01b600052604160045260246000fd5b600082601f830112620002cd57600080fd5b81516001600160401b0380821115620002ea57620002ea620002a5565b604051601f8301601f19908116603f01168101908282118183101715620003155762000315620002a5565b816040528381526020925086838588010111156200033257600080fd5b600091505b8382101562000356578582018301518183018401529082019062000337565b83821115620003685760008385830101525b9695505050505050565b600080600080600060a086880312156200038b57600080fd5b855160208701519095506001600160401b0380821115620003ab57600080fd5b620003b989838a01620002bb565b95506040880151915080821115620003d057600080fd5b50620003df88828901620002bb565b935050606086015160ff81168114620003f757600080fd5b60808701519092506001600160a01b03811681146200041557600080fd5b809150509295509295909350565b600181811c908216806200043857607f821691505b602082108114156200045a57634e487b7160e01b600052602260045260246000fd5b50919050565b61123680620004706000396000f3fe6080604052600436106101145760003560e01c80638620410b116100a0578063c610bb0711610064578063c610bb07146102b3578063dd62ed3e146102d3578063e4849b32146102f3578063f7d9757714610313578063f851a4401461033357600080fd5b80638620410b146102415780639264a1691461025657806395d89b4114610276578063a6f2ae3a1461028b578063c19274331461029357600080fd5b80633ccfd60b116100e75780633ccfd60b146101b55780634b750334146101cc57806370a08231146101e157806379c65068146102015780637d340d181461022157600080fd5b806306fdde0314610119578063095ea7b31461014457806318160ddd14610174578063313ce56714610193575b600080fd5b34801561012557600080fd5b5061012e61035b565b60405161013b9190610e5a565b60405180910390f35b34801561015057600080fd5b5061016461015f366004610ecb565b6103ed565b604051901515815260200161013b565b34801561018057600080fd5b506005545b60405190815260200161013b565b34801561019f57600080fd5b5060045460405160ff909116815260200161013b565b3480156101c157600080fd5b506101ca6104ba565b005b3480156101d857600080fd5b50600954610185565b3480156101ed57600080fd5b506101856101fc366004610ef5565b6104ff565b34801561020d57600080fd5b506101ca61021c366004610ecb565b61051a565b34801561022d57600080fd5b506101ca61023c366004610ef5565b610674565b34801561024d57600080fd5b50600a54610185565b34801561026257600080fd5b50610164610271366004610f17565b6106f6565b34801561028257600080fd5b5061012e610948565b6101ca610957565b34801561029f57600080fd5b506101ca6102ae366004610f53565b610a61565b3480156102bf57600080fd5b506101646102ce366004610ecb565b610b40565b3480156102df57600080fd5b506101856102ee366004610f8f565b610c6d565b3480156102ff57600080fd5b506101ca61030e366004610fc2565b610c98565b34801561031f57600080fd5b506101ca61032e366004610fdb565b610dcf565b34801561033f57600080fd5b506006546040516001600160a01b03909116815260200161013b565b60606002805461036a90610ffd565b80601f016020809104026020016040519081016040528092919081815260200182805461039690610ffd565b80156103e35780601f106103b8576101008083540402835291602001916103e3565b820191906000526020600020905b8154815290600101906020018083116103c657829003601f168201915b5050505050905090565b60006001600160a01b0383166104555760405162461bcd60e51b815260206004820152602260248201527f546865205370656e64657220616464726573732063616e6e6f74206265207a65604482015261726f60f01b60648201526084015b60405180910390fd5b3360008181526001602090815260408083206001600160a01b03881680855290835292819020869055518581529192917f8c5be1e5ebec7d5bd14f71427d1e84f3dd0314c0f7b2291e5b200ac8c7c3b92591015b60405180910390a350600192915050565b33600081815260086020526040808220805490839055905190929183156108fc02918491818181858888f193505050501580156104fb573d6000803e3d6000fd5b5050565b6001600160a01b031660009081526020819052604090205490565b6006546001600160a01b031633146105445760405162461bcd60e51b815260040161044c90611038565b61054d826104ff565b81610557846104ff565b6105619190611090565b116105a25760405162461bcd60e51b81526020600482015260116024820152704164646974696f6e204f766572666c6f7760781b604482015260640161044c565b6005546105af8282611090565b116105f05760405162461bcd60e51b81526020600482015260116024820152704164646974696f6e204f766572666c6f7760781b604482015260640161044c565b61062482826105fe856104ff565b6106089190611090565b6001600160a01b03909116600090815260208190526040902055565b6106408161063160055490565b61063b9190611090565b600555565b6040518181526001600160a01b038316906000906000805160206111e1833981519152906020015b60405180910390a35050565b6006546001600160a01b0316331461069e5760405162461bcd60e51b815260040161044c90611038565b6040516001600160a01b0382169033907f2931ebb3d190545dcf6801c37aa686b74f2e1000e753d0fac6e471a2aa5a621390600090a3600680546001600160a01b0319166001600160a01b0392909216919091179055565b60006001600160a01b0384166107585760405162461bcd60e51b815260206004820152602160248201527f5468652073656e64657220616464726573732063616e6e6f74206265207a65726044820152606f60f81b606482015260840161044c565b6001600160a01b03831661077e5760405162461bcd60e51b815260040161044c906110a8565b6107888433610c6d565b8211156107d05760405162461bcd60e51b8152602060048201526016602482015275082d8d8deeedcc6ca40d2e640dcdee840cadcdeeaced60531b604482015260640161044c565b816107da856104ff565b10156107f85760405162461bcd60e51b815260040161044c906110eb565b610801836104ff565b8261080b856104ff565b6108159190611090565b116108325760405162461bcd60e51b815260040161044c9061113d565b6001600160a01b03841660009081526007602052604090205460ff16156108975760405162461bcd60e51b815260206004820152601960248201527829b2b73232b9399030b1b1b7bab73a1034b990233937bd32b760391b604482015260640161044c565b6108af84836108a5876104ff565b6106089190611188565b6108f58433846108bf8833610c6d565b6108c99190611188565b6001600160a01b0392831660009081526001602090815260408083209490951682529290925291902055565b61090383836105fe866104ff565b826001600160a01b0316846001600160a01b03166000805160206111e18339815191528460405161093691815260200190565b60405180910390a35060019392505050565b60606003805461036a90610ffd565b600a5460009061096f670de0b6b3a76400003461119f565b610979919061119f565b90503081610986826104ff565b10156109e05760405162461bcd60e51b815260206004820152602360248201527f436f6e747261637420646f6573206e6f74206861766520656e6f75676820746f60448201526235b2b760e91b606482015260840161044c565b6109e9336104ff565b826109f3336104ff565b6109fd9190611090565b11610a1a5760405162461bcd60e51b815260040161044c9061113d565b610a2881836108a5846104ff565b610a3633836105fe336104ff565b60405182815233906001600160a01b038316906000805160206111e183398151915290602001610668565b6006546001600160a01b03163314610a8b5760405162461bcd60e51b815260040161044c90611038565b6001600160a01b038216610ae15760405162461bcd60e51b815260206004820152601b60248201527f43616e6e6f742066726f7a652061207a65726f206163636f756e740000000000604482015260640161044c565b6001600160a01b038216600081815260076020908152604091829020805460ff191685151590811790915591519182527f5ea9caffecf85bd277bd191ab41dd68c548f001913f64c16c3a9abe77dce2de5910160405180910390a25050565b60006001600160a01b038316610b685760405162461bcd60e51b815260040161044c906110a8565b81610b72336104ff565b1015610b905760405162461bcd60e51b815260040161044c906110eb565b610b99836104ff565b82610ba3856104ff565b610bad9190611090565b11610bca5760405162461bcd60e51b815260040161044c9061113d565b3360009081526007602052604090205460ff1615610c265760405162461bcd60e51b815260206004820152601960248201527829b2b73232b9399030b1b1b7bab73a1034b990233937bd32b760391b604482015260640161044c565b610c3433836108a5336104ff565b610c4283836105fe866104ff565b6040518281526001600160a01b0384169033906000805160206111e1833981519152906020016104a9565b6001600160a01b03918216600090815260016020908152604080832093909416825291909152205490565b3081610ca3336104ff565b1015610cfb5760405162461bcd60e51b815260206004820152602160248201527f53656c6c657220646f6573206e6f74206861766520656e6f75676820746f6b656044820152603760f91b606482015260840161044c565b610d04816104ff565b82610d0e836104ff565b610d189190611090565b11610d355760405162461bcd60e51b815260040161044c9061113d565b610d4333836108a5336104ff565b610d5181836105fe846104ff565b600060095483610d6191906111c1565b610d7390670de0b6b3a76400006111c1565b33600090815260086020526040812080549293508392909190610d97908490611090565b90915550506040518381526001600160a01b0383169033906000805160206111e18339815191529060200160405180910390a3505050565b6006546001600160a01b03163314610df95760405162461bcd60e51b815260040161044c90611038565b60008211610e0657600080fd5b60008111610e1357600080fd5b600a829055600981905560408051838152602081018390527ffe6b606ca0477592b5740a0eb00c8e91570a5d0eb736abfa1a6309bd081b4a4d910160405180910390a15050565b600060208083528351808285015260005b81811015610e8757858101830151858201604001528201610e6b565b81811115610e99576000604083870101525b50601f01601f1916929092016040019392505050565b80356001600160a01b0381168114610ec657600080fd5b919050565b60008060408385031215610ede57600080fd5b610ee783610eaf565b946020939093013593505050565b600060208284031215610f0757600080fd5b610f1082610eaf565b9392505050565b600080600060608486031215610f2c57600080fd5b610f3584610eaf565b9250610f4360208501610eaf565b9150604084013590509250925092565b60008060408385031215610f6657600080fd5b610f6f83610eaf565b915060208301358015158114610f8457600080fd5b809150509250929050565b60008060408385031215610fa257600080fd5b610fab83610eaf565b9150610fb960208401610eaf565b90509250929050565b600060208284031215610fd457600080fd5b5035919050565b60008060408385031215610fee57600080fd5b50508035926020909101359150565b600181811c9082168061101157607f821691505b6020821081141561103257634e487b7160e01b600052602260045260246000fd5b50919050565b60208082526022908201527f4f6e6c792061646d696e2063616e20706572666f726d2074686973206163746960408201526137b760f11b606082015260800190565b634e487b7160e01b600052601160045260246000fd5b600082198211156110a3576110a361107a565b500190565b60208082526023908201527f54686520726563656976657220616464726573732063616e6e6f74206265207a60408201526265726f60e81b606082015260800190565b60208082526032908201527f5468652073656e6465722068617320696e73756666696369656e742062616c616040820152711b98d9481a5b881d1a19481858d8dbdd5b9d60721b606082015260800190565b6020808252602b908201527f4164646974696f6e206f766572666c6f7720666f756e6420696e20726563656960408201526a1d995c881858d8dbdd5b9d60aa1b606082015260800190565b60008282101561119a5761119a61107a565b500390565b6000826111bc57634e487b7160e01b600052601260045260246000fd5b500490565b60008160001904831182151516156111db576111db61107a565b50029056fe5225eac2a7facfbeb099c00a4cc7c457701324f1fd84b84b14033f9e911374a4a2646970667358221220452f7996e5d99f11a9e4d362ac6962b7e3bafe83497c172d43bd9109c5ed445d64736f6c63430008090033",
    "sourcePath": "p:/Projects/TAM-Token-ERC20/TAM_Token_Advanced.sol",
    "compiler": {
        "name": "solc",
        "version": "0.8.9+commit.e5eed63a"
    },
    "functionHashes": {
        "admin()": "f851a440",
        "allowance(address,address)": "dd62ed3e",
        "approve(address,uint256)": "095ea7b3",
        "balanceOf(address)": "70a08231",
        "buy()": "a6f2ae3a",
        "buyPrice()": "8620410b",
        "decimals()": "313ce567",
        "freezAccount(address,bool)": "c1927433",
        "mintToken(address,uint256)": "79c65068",
        "name()": "06fdde03",
        "sell(uint256)": "e4849b32",
        "sellPrice()": "4b750334",
        "setPrice(uint256,uint256)": "f7d97577",
        "symbol()": "95d89b41",
        "totalSupply()": "18160ddd",
        "tranfer(address,uint256)": "c610bb07",
        "tranferAdminship(address)": "7d340d18",
        "tranferFrom(address,address,uint256)": "9264a169",
        "withdraw()": "3ccfd60b"
    },
    "gasEstimates": {
        "creation": {
            "codeDepositCost": "932400",
            "executionCost": "infinite",
            "totalCost": "infinite"
        },
        "external": {
            "admin()": "2411",
            "allowance(address,address)": "infinite",
            "approve(address,uint256)": "24566",
            "balanceOf(address)": "2619",
            "buy()": "infinite",
            "buyPrice()": "2315",
            "decimals()": "2379",
            "freezAccount(address,bool)": "28419",
            "mintToken(address,uint256)": "infinite",
            "name()": "infinite",
            "sell(uint256)": "infinite",
            "sellPrice()": "2337",
            "setPrice(uint256,uint256)": "48074",
            "symbol()": "infinite",
            "totalSupply()": "2349",
            "tranfer(address,uint256)": "infinite",
            "tranferAdminship(address)": "28369",
            "tranferFrom(address,address,uint256)": "infinite",
            "withdraw()": "infinite"
        }
    }
}