{
    "contractName": "TAM",
    "abi": [
        {
            "inputs": [
                {
                    "internalType": "uint256",
                    "name": "initialSupply",
                    "type": "uint256"
                }
            ],
            "stateMutability": "nonpayable",
            "type": "constructor"
        },
        {
            "inputs": [
                {
                    "internalType": "address",
                    "name": "account",
                    "type": "address"
                }
            ],
            "name": "balanceof",
            "outputs": [
                {
                    "internalType": "uint256",
                    "name": "",
                    "type": "uint256"
                }
            ],
            "stateMutability": "view",
            "type": "function"
        },
        {
            "inputs": [
                {
                    "internalType": "address",
                    "name": "receiver",
                    "type": "address"
                },
                {
                    "internalType": "uint256",
                    "name": "amount",
                    "type": "uint256"
                }
            ],
            "name": "tranfer",
            "outputs": [
                {
                    "internalType": "bool",
                    "name": "",
                    "type": "bool"
                }
            ],
            "stateMutability": "nonpayable",
            "type": "function"
        }
    ],
    "bytecode": "608060405234801561001057600080fd5b5060405161025f38038061025f83398101604081905261002f91610044565b3360009081526020819052604090205561005d565b60006020828403121561005657600080fd5b5051919050565b6101f38061006c6000396000f3fe608060405234801561001057600080fd5b50600436106100365760003560e01c80633d64125b1461003b578063c610bb0714610077575b600080fd5b61006461004936600461012c565b6001600160a01b031660009081526020819052604090205490565b6040519081526020015b60405180910390f35b61008a61008536600461014e565b61009a565b604051901515815260200161006e565b336000908152602081905260408120548211156100b657600080fd5b33600090815260208190526040812080548492906100d590849061018e565b90915550506001600160a01b038316600090815260208190526040812080548492906101029084906101a5565b909155506001949350505050565b80356001600160a01b038116811461012757600080fd5b919050565b60006020828403121561013e57600080fd5b61014782610110565b9392505050565b6000806040838503121561016157600080fd5b61016a83610110565b946020939093013593505050565b634e487b7160e01b600052601160045260246000fd5b6000828210156101a0576101a0610178565b500390565b600082198211156101b8576101b8610178565b50019056fea2646970667358221220498bd7247756b7c8d7f52125850b41896eb2e51eae41ffa806b58ca145e1162464736f6c63430008090033",
    "sourcePath": "p:/Projects/TAM-Token-ERC20/TAM_Token.sol",
    "compiler": {
        "name": "solc",
        "version": "0.8.9+commit.e5eed63a"
    },
    "functionHashes": {
        "balanceof(address)": "3d64125b",
        "tranfer(address,uint256)": "c610bb07"
    },
    "gasEstimates": {
        "creation": {
            "codeDepositCost": "99800",
            "executionCost": "infinite",
            "totalCost": "infinite"
        },
        "external": {
            "balanceof(address)": "2507",
            "tranfer(address,uint256)": "51352"
        },
        "internal": {
            "setBalance(address,uint256)": "infinite"
        }
    }
}